:1000000012C0189518951895189518951895189563
:100010001895189518951895189518951895189578
:100020001895189518958FED8DBFC8EBE0EA4E2E08
:10003000DD275D2EA89584B7082E877F84BF88E1D1
:10004000992781BD91BDEEE7F0E0A0E6B0E08827FA
:100050008D933197E9F7662480E081BB8FEF87BBF2
:1000600074B7777F74BF8EE181BD86E081BD80E08B
:1000700090E0A1E68D939C9380E090E0A3E68D93C1
:100080009C9380E090E0A5E68D939C9380E090E0C7
:10009000A7E68D939C9380E090E0A9E68D939C93D6
:1000A00080E090E0ABE68D939C9380E090E0ADE63D
:1000B0008D939C9380E090E0AFE68D939C9370E0ED
:1000C00078BB81E08093600000916000033010F005
:1000D00009F02BC0C09A82E390E09AD2C19A82E3E1
:1000E00090E096D2C29A82E390E092D2C39A82E3E1
:1000F00090E08ED2C49A82E390E08AD2C59A82E3DD
:1001000090E086D2C79A82E390E082D2C69A8AEFC4
:1001100090E07ED270E078BB8AEF90E079D2A0E6E2
:100120008C918F5F8C9308F4CFCF88EE93E070D2E0
:1001300081B5886081BD70E078BBA0E30C9100FBC5
:1001400081E00EF480E08F93A3E60D911C910130C5
:1001500050E0150781E009F480E09F91892388230E
:1001600009F405C087E990E0A3E68D939C93A0E392
:100170000C9101FB81E00EF480E08F93A5E60D91D8
:100180001C91013050E0150781E009F480E09F9157
:100190008923882309F405C085E690E0A5E68D93C0
:1001A0009C93A0E30C9102FB81E00EF480E08F931E
:1001B000A7E60D911C91013050E0150781E009F48C
:1001C00080E09F918923882309F405C085E690E0AB
:1001D000A7E68D939C93A0E30C9103FB81E00EF4C2
:1001E00080E08F93A9E60D911C91013050E0150736
:1001F00081E009F480E09F918923882309F405C0F8
:1002000085E690E0A9E68D939C93A0E30C9104FB16
:1002100081E00EF480E08F93ABE60D911C910130EC
:1002200050E0150781E009F480E09F91892388233D
:1002300009F405C085E690E0ABE68D939C93A0E3BE
:100240000C9105FB81E00EF480E08F93ADE60D91FB
:100250001C91013050E0150781E009F480E09F9186
:100260008923882309F405C085E690E0ADE68D93E7
:100270009C93A3E60D911C91013050E0150709F401
:100280000AC0A0E38C9180FB80F9809580FBA8E3F5
:100290008C9180F98C93A5E60D911C91013050E072
:1002A000150709F40AC0A0E38C9181FB80F98095C1
:1002B00080FBA8E38C9181F98C93A7E60D911C91AA
:1002C000013050E0150709F40AC0A0E38C9182FBCD
:1002D00080F9809580FBA8E38C9182F98C93A9E644
:1002E0000D911C91013050E0150709F40AC0A0E3FC
:1002F0008C9183FB80F9809580FBA8E38C9183F936
:100300008C93ABE60D911C91013050E0150709F478
:100310000AC0A0E38C9184FB80F9809580FBA8E360
:100320008C9184F98C93ADE60D911C91013050E0D5
:10033000150709F40AC0A0E38C9185FB80F980952C
:1003400080FBA8E38C9185F98C93A3E60D911C9119
:10035000013050E0150714F009F001C008C0A3E611
:100360000D911C9101501040A3E60D931C93A3E640
:100370000D911C91013050E0150709F005C081E096
:1003800090E0A1E68D939C93A5E60D911C91013020
:1003900050E0150714F009F001C008C0A5E60D9162
:1003A0001C9101501040A5E60D931C93A5E60D91FC
:1003B0001C91013050E0150709F005C081E090E084
:1003C000A1E68D939C93A7E60D911C91013050E01E
:1003D000150714F009F001C008C0A7E60D911C91A3
:1003E00001501040A7E60D931C93A7E60D911C91B8
:1003F000013050E0150709F005C081E090E0A1E66A
:100400008D939C93A9E60D911C91013050E0150746
:1004100014F009F001C008C0A9E60D911C9101502B
:100420001040A9E60D931C93A9E60D911C91013093
:1004300050E0150709F005C081E090E0A1E68D933A
:100440009C93ABE60D911C91013050E0150714F020
:1004500009F001C008C0ABE60D911C91015010409D
:10046000ABE60D931C93ABE60D911C91013050E06F
:10047000150709F005C081E090E0A1E68D939C93FB
:10048000ADE60D911C91013050E0150714F009F014
:1004900001C008C0ADE60D911C9101501040ADE6C1
:1004A0000D931C93ADE60D911C91013050E01507A2
:1004B00009F005C081E090E0A1E68D939C938699B8
:1004C00023C080E090E0A1E68D939C9380E090E0D3
:1004D000A3E68D939C9380E090E0A5E68D939C939A
:1004E00080E090E0A7E68D939C9380E090E0A9E601
:1004F0008D939C9380E090E0ABE68D939C9380E09D
:1005000090E0ADE68D939C93A1E60D911C91013096
:1005100050E0150709F043C0A3E60D911C9101308E
:1005200050E0150709F001C0C09AA5E60D911C9195
:10053000013050E0150709F001C0C19AA7E60D91FE
:100540001C91013050E0150709F001C0C29AA9E6DC
:100550000D911C91013050E0150709F001C0C39ABC
:10056000ABE60D911C91013050E0150709F001C078
:10057000C49AADE60D911C91013050E0150709F0C9
:1005800001C0C59AAFE60D911C91003050E01507EF
:1005900009F005C086E090E0AFE68D939C93AFE64E
:1005A0000D911C91003050E0150714F009F001C0C6
:1005B00008C0AFE60D911C9101501040AFE60D93BD
:1005C0001C93AFE60D911C91043050E0150709F023
:1005D00001C0C69AAFE60D911C91013050E015079D
:1005E00009F001C0C698A895C79A89E190E010D09B
:1005F000C7988BE490E00CD0A0CDF894FFCF319752
:10060000F1F70895689462F80895E89462F80895FF
:10061000EF93FF93EE27E82BE92B31F0E8EEF3E0C0
:0E0620003197F1F70197D1F7FF91EF9108950F
:00000001FF
